:100000000C9434000C943E000C943E000C943E0082
:100010000C943E000C943E000C943E000C943E0068
:100020000C943E000C943E000C943E000C943E0058
:100030000C943E000C943E000C943E000C943E0048
:100040000C943E000C943E000C943E000C943E0038
:100050000C943E000C943E000C943E000C943E0028
:100060000C943E000C943E0011241FBECFEFD8E04C
:10007000DEBFCDBF0E9440000C9467000C940000CE
:10008000CF93DF9300D000D0CDB7DEB7259A52983A
:100090004A991BC02D9A19821A821B821C8289815F
:1000A0009A81AB81BC81883E9340A105B10584F75C
:1000B000000089819A81AB81BC810196A11DB11D8F
:1000C00089839A83AB83BC83EACF2D98E4CFF894DD
:0200D000FFCF60
:00000001FF
